{
  "contractName": "Capsule",
  "abi": [
    {
      "anonymous": false,
      "inputs": [
        {
          "indexed": true,
          "internalType": "address",
          "name": "_owner",
          "type": "address"
        },
        {
          "indexed": true,
          "internalType": "address",
          "name": "_approved",
          "type": "address"
        },
        {
          "indexed": true,
          "internalType": "uint256",
          "name": "_tokenId",
          "type": "uint256"
        }
      ],
      "name": "Approval",
      "type": "event"
    },
    {
      "anonymous": false,
      "inputs": [
        {
          "indexed": false,
          "internalType": "uint256",
          "name": "id",
          "type": "uint256"
        }
      ],
      "name": "DestroyCapsule",
      "type": "event"
    },
    {
      "anonymous": false,
      "inputs": [
        {
          "indexed": false,
          "internalType": "address",
          "name": "creator",
          "type": "address"
        },
        {
          "indexed": false,
          "internalType": "uint256",
          "name": "lockTime",
          "type": "uint256"
        },
        {
          "indexed": false,
          "internalType": "uint256",
          "name": "unlockTime",
          "type": "uint256"
        },
        {
          "indexed": false,
          "internalType": "uint256",
          "name": "id",
          "type": "uint256"
        }
      ],
      "name": "NewCapsule",
      "type": "event"
    },
    {
      "anonymous": false,
      "inputs": [
        {
          "indexed": true,
          "internalType": "address",
          "name": "_from",
          "type": "address"
        },
        {
          "indexed": true,
          "internalType": "address",
          "name": "_to",
          "type": "address"
        },
        {
          "indexed": true,
          "internalType": "uint256",
          "name": "_tokenId",
          "type": "uint256"
        }
      ],
      "name": "Transfer",
      "type": "event"
    },
    {
      "inputs": [
        {
          "internalType": "uint256",
          "name": "",
          "type": "uint256"
        }
      ],
      "name": "capsuleToOwner",
      "outputs": [
        {
          "internalType": "address",
          "name": "",
          "type": "address"
        }
      ],
      "stateMutability": "view",
      "type": "function",
      "constant": true
    },
    {
      "inputs": [
        {
          "internalType": "string",
          "name": "message",
          "type": "string"
        },
        {
          "internalType": "uint256",
          "name": "unlockTime",
          "type": "uint256"
        }
      ],
      "name": "createCapsule",
      "outputs": [],
      "stateMutability": "nonpayable",
      "type": "function"
    },
    {
      "inputs": [
        {
          "internalType": "uint256",
          "name": "id",
          "type": "uint256"
        }
      ],
      "name": "destroyCapsule",
      "outputs": [],
      "stateMutability": "nonpayable",
      "type": "function"
    },
    {
      "inputs": [],
      "name": "getTotalCapsules",
      "outputs": [
        {
          "internalType": "uint256",
          "name": "",
          "type": "uint256"
        }
      ],
      "stateMutability": "view",
      "type": "function",
      "constant": true
    },
    {
      "inputs": [
        {
          "internalType": "address",
          "name": "",
          "type": "address"
        }
      ],
      "name": "ownerCapsuleCount",
      "outputs": [
        {
          "internalType": "uint256",
          "name": "",
          "type": "uint256"
        }
      ],
      "stateMutability": "view",
      "type": "function",
      "constant": true
    },
    {
      "inputs": [
        {
          "internalType": "uint256",
          "name": "id",
          "type": "uint256"
        }
      ],
      "name": "readCapsule",
      "outputs": [
        {
          "internalType": "string",
          "name": "",
          "type": "string"
        }
      ],
      "stateMutability": "view",
      "type": "function",
      "constant": true
    },
    {
      "inputs": [
        {
          "internalType": "uint256",
          "name": "id",
          "type": "uint256"
        }
      ],
      "name": "readCapsuleMetadata",
      "outputs": [
        {
          "internalType": "uint256",
          "name": "lockTime",
          "type": "uint256"
        },
        {
          "internalType": "uint256",
          "name": "unlockTime",
          "type": "uint256"
        },
        {
          "internalType": "address",
          "name": "originalOwner",
          "type": "address"
        }
      ],
      "stateMutability": "view",
      "type": "function",
      "constant": true
    },
    {
      "inputs": [
        {
          "internalType": "address",
          "name": "_owner",
          "type": "address"
        }
      ],
      "name": "balanceOf",
      "outputs": [
        {
          "internalType": "uint256",
          "name": "",
          "type": "uint256"
        }
      ],
      "stateMutability": "view",
      "type": "function",
      "constant": true
    },
    {
      "inputs": [
        {
          "internalType": "uint256",
          "name": "_tokenId",
          "type": "uint256"
        }
      ],
      "name": "ownerOf",
      "outputs": [
        {
          "internalType": "address",
          "name": "",
          "type": "address"
        }
      ],
      "stateMutability": "view",
      "type": "function",
      "constant": true
    },
    {
      "inputs": [
        {
          "internalType": "address",
          "name": "_from",
          "type": "address"
        },
        {
          "internalType": "address",
          "name": "_to",
          "type": "address"
        },
        {
          "internalType": "uint256",
          "name": "_tokenId",
          "type": "uint256"
        }
      ],
      "name": "transferFrom",
      "outputs": [],
      "stateMutability": "payable",
      "type": "function",
      "payable": true
    },
    {
      "inputs": [
        {
          "internalType": "address",
          "name": "_approved",
          "type": "address"
        },
        {
          "internalType": "uint256",
          "name": "_tokenId",
          "type": "uint256"
        }
      ],
      "name": "approve",
      "outputs": [],
      "stateMutability": "payable",
      "type": "function",
      "payable": true
    }
  ],
  "bytecode": "0x608060405234801561001057600080fd5b50611485806100206000396000f3fe60806040526004361061009c5760003560e01c806386be60fc1161006457806386be60fc1461017c578063b06d3c8d146101b9578063bb2c1052146101e4578063d1c0b7a614610223578063d5e0d88e14610260578063e0230869146102895761009c565b8063095ea7b3146100a1578063134e59ec146100bd57806323b872dd146100e65780636352211e1461010257806370a082311461013f575b600080fd5b6100bb60048036038101906100b69190610e8a565b6102c6565b005b3480156100c957600080fd5b506100e460048036038101906100df9190610eca565b6103e2565b005b61010060048036038101906100fb9190610ef7565b6105a0565b005b34801561010e57600080fd5b5061012960048036038101906101249190610eca565b61080b565b6040516101369190610f59565b60405180910390f35b34801561014b57600080fd5b5061016660048036038101906101619190610f74565b610848565b6040516101739190610fb0565b60405180910390f35b34801561018857600080fd5b506101a3600480360381019061019e9190610f74565b610891565b6040516101b09190610fb0565b60405180910390f35b3480156101c557600080fd5b506101ce6108a9565b6040516101db9190610fb0565b60405180910390f35b3480156101f057600080fd5b5061020b60048036038101906102069190610eca565b6108b5565b60405161021a93929190610fcb565b60405180910390f35b34801561022f57600080fd5b5061024a60048036038101906102459190610eca565b6109c8565b604051610257919061109b565b60405180910390f35b34801561026c57600080fd5b50610287600480360381019061028291906111f2565b610b1f565b005b34801561029557600080fd5b506102b060048036038101906102ab9190610eca565b610d0c565b6040516102bd9190610f59565b60405180910390f35b3373ffffffffffffffffffffffffffffffffffffffff166001600083815260200190815260200160002060009054906101000a900473ffffffffffffffffffffffffffffffffffffffff1673ffffffffffffffffffffffffffffffffffffffff161461033157600080fd5b816003600083815260200190815260200160002060006101000a81548173ffffffffffffffffffffffffffffffffffffffff021916908373ffffffffffffffffffffffffffffffffffffffff160217905550808273ffffffffffffffffffffffffffffffffffffffff163373ffffffffffffffffffffffffffffffffffffffff167f8c5be1e5ebec7d5bd14f71427d1e84f3dd0314c0f7b2291e5b200ac8c7c3b92560405160405180910390a45050565b803373ffffffffffffffffffffffffffffffffffffffff166001600083815260200190815260200160002060009054906101000a900473ffffffffffffffffffffffffffffffffffffffff1673ffffffffffffffffffffffffffffffffffffffff161461044e57600080fd5b81600073ffffffffffffffffffffffffffffffffffffffff166001600083815260200190815260200160002060009054906101000a900473ffffffffffffffffffffffffffffffffffffffff1673ffffffffffffffffffffffffffffffffffffffff1614156104bc57600080fd5b600260003373ffffffffffffffffffffffffffffffffffffffff1673ffffffffffffffffffffffffffffffffffffffff168152602001908152602001600020600081548092919061050c9061127d565b919050555060006001600085815260200190815260200160002060006101000a81548173ffffffffffffffffffffffffffffffffffffffff021916908373ffffffffffffffffffffffffffffffffffffffff1602179055507fc5e33237ba90108e9214dd8b5ea4835130eca1cc7e291e96c8af14091ad9b98a836040516105939190610fb0565b60405180910390a1505050565b8273ffffffffffffffffffffffffffffffffffffffff166001600083815260200190815260200160002060009054906101000a900473ffffffffffffffffffffffffffffffffffffffff1673ffffffffffffffffffffffffffffffffffffffff161480156106a257508273ffffffffffffffffffffffffffffffffffffffff163373ffffffffffffffffffffffffffffffffffffffff1614806106a157506003600082815260200190815260200160002060009054906101000a900473ffffffffffffffffffffffffffffffffffffffff1673ffffffffffffffffffffffffffffffffffffffff163373ffffffffffffffffffffffffffffffffffffffff16145b5b6106ab57600080fd5b6001600260008573ffffffffffffffffffffffffffffffffffffffff1673ffffffffffffffffffffffffffffffffffffffff16815260200190815260200160002060008282546106fb91906112a7565b925050819055506001600260008473ffffffffffffffffffffffffffffffffffffffff1673ffffffffffffffffffffffffffffffffffffffff168152602001908152602001600020600082825461075291906112db565b92505081905550816001600083815260200190815260200160002060006101000a81548173ffffffffffffffffffffffffffffffffffffffff021916908373ffffffffffffffffffffffffffffffffffffffff160217905550808273ffffffffffffffffffffffffffffffffffffffff168473ffffffffffffffffffffffffffffffffffffffff167fddf252ad1be2c89b69c2b068fc378daa952ba7f163c4a11628f55a4df523b3ef60405160405180910390a4505050565b60006001600083815260200190815260200160002060009054906101000a900473ffffffffffffffffffffffffffffffffffffffff169050919050565b6000600260008373ffffffffffffffffffffffffffffffffffffffff1673ffffffffffffffffffffffffffffffffffffffff168152602001908152602001600020549050919050565b60026020528060005260406000206000915090505481565b60008080549050905090565b600080600083600073ffffffffffffffffffffffffffffffffffffffff166001600083815260200190815260200160002060009054906101000a900473ffffffffffffffffffffffffffffffffffffffff1673ffffffffffffffffffffffffffffffffffffffff16141561092857600080fd5b6000858154811061093c5761093b611331565b5b9060005260206000209060040201600101546000868154811061096257610961611331565b5b9060005260206000209060040201600201546000878154811061098857610987611331565b5b906000526020600020906004020160030160009054906101000a900473ffffffffffffffffffffffffffffffffffffffff16935093509350509193909250565b606081600073ffffffffffffffffffffffffffffffffffffffff166001600083815260200190815260200160002060009054906101000a900473ffffffffffffffffffffffffffffffffffffffff1673ffffffffffffffffffffffffffffffffffffffff161415610a3857600080fd5b60008381548110610a4c57610a4b611331565b5b9060005260206000209060040201600201544211610a6957600080fd5b60008381548110610a7d57610a7c611331565b5b90600052602060002090600402016000018054610a999061138f565b80601f0160208091040260200160405190810160405280929190818152602001828054610ac59061138f565b8015610b125780601f10610ae757610100808354040283529160200191610b12565b820191906000526020600020905b815481529060010190602001808311610af557829003601f168201915b5050505050915050919050565b6000429050818110610b3057600080fd5b600060405180608001604052808581526020018381526020018481526020013373ffffffffffffffffffffffffffffffffffffffff1681525090806001815401808255809150506001900390600052602060002090600402016000909190919091506000820151816000019080519060200190610bae929190610d3f565b50602082015181600101556040820151816002015560608201518160030160006101000a81548173ffffffffffffffffffffffffffffffffffffffff021916908373ffffffffffffffffffffffffffffffffffffffff160217905550505060006001600080549050610c2091906112a7565b9050600260003373ffffffffffffffffffffffffffffffffffffffff1673ffffffffffffffffffffffffffffffffffffffff1681526020019081526020016000206000815480929190610c72906113c1565b9190505550336001600083815260200190815260200160002060006101000a81548173ffffffffffffffffffffffffffffffffffffffff021916908373ffffffffffffffffffffffffffffffffffffffff1602179055507f325ae626dbcc2e8b99ef2c0c4c3efa5b211f1fcca4f952869538f88ebcf0fa9433838584604051610cfe949392919061140a565b60405180910390a150505050565b60016020528060005260406000206000915054906101000a900473ffffffffffffffffffffffffffffffffffffffff1681565b828054610d4b9061138f565b90600052602060002090601f016020900481019282610d6d5760008555610db4565b82601f10610d8657805160ff1916838001178555610db4565b82800160010185558215610db4579182015b82811115610db3578251825591602001919060010190610d98565b5b509050610dc19190610dc5565b5090565b5b80821115610dde576000816000905550600101610dc6565b5090565b6000604051905090565b600080fd5b600080fd5b600073ffffffffffffffffffffffffffffffffffffffff82169050919050565b6000610e2182610df6565b9050919050565b610e3181610e16565b8114610e3c57600080fd5b50565b600081359050610e4e81610e28565b92915050565b6000819050919050565b610e6781610e54565b8114610e7257600080fd5b50565b600081359050610e8481610e5e565b92915050565b60008060408385031215610ea157610ea0610dec565b5b6000610eaf85828601610e3f565b9250506020610ec085828601610e75565b9150509250929050565b600060208284031215610ee057610edf610dec565b5b6000610eee84828501610e75565b91505092915050565b600080600060608486031215610f1057610f0f610dec565b5b6000610f1e86828701610e3f565b9350506020610f2f86828701610e3f565b9250506040610f4086828701610e75565b9150509250925092565b610f5381610e16565b82525050565b6000602082019050610f6e6000830184610f4a565b92915050565b600060208284031215610f8a57610f89610dec565b5b6000610f9884828501610e3f565b91505092915050565b610faa81610e54565b82525050565b6000602082019050610fc56000830184610fa1565b92915050565b6000606082019050610fe06000830186610fa1565b610fed6020830185610fa1565b610ffa6040830184610f4a565b949350505050565b600081519050919050565b600082825260208201905092915050565b60005b8381101561103c578082015181840152602081019050611021565b8381111561104b576000848401525b50505050565b6000601f19601f8301169050919050565b600061106d82611002565b611077818561100d565b935061108781856020860161101e565b61109081611051565b840191505092915050565b600060208201905081810360008301526110b58184611062565b905092915050565b600080fd5b600080fd5b7f4e487b7100000000000000000000000000000000000000000000000000000000600052604160045260246000fd5b6110ff82611051565b810181811067ffffffffffffffff8211171561111e5761111d6110c7565b5b80604052505050565b6000611131610de2565b905061113d82826110f6565b919050565b600067ffffffffffffffff82111561115d5761115c6110c7565b5b61116682611051565b9050602081019050919050565b82818337600083830152505050565b600061119561119084611142565b611127565b9050828152602081018484840111156111b1576111b06110c2565b5b6111bc848285611173565b509392505050565b600082601f8301126111d9576111d86110bd565b5b81356111e9848260208601611182565b91505092915050565b6000806040838503121561120957611208610dec565b5b600083013567ffffffffffffffff81111561122757611226610df1565b5b611233858286016111c4565b925050602061124485828601610e75565b9150509250929050565b7f4e487b7100000000000000000000000000000000000000000000000000000000600052601160045260246000fd5b600061128882610e54565b9150600082141561129c5761129b61124e565b5b600182039050919050565b60006112b282610e54565b91506112bd83610e54565b9250828210156112d0576112cf61124e565b5b828203905092915050565b60006112e682610e54565b91506112f183610e54565b9250827fffffffffffffffffffffffffffffffffffffffffffffffffffffffffffffffff038211156113265761132561124e565b5b828201905092915050565b7f4e487b7100000000000000000000000000000000000000000000000000000000600052603260045260246000fd5b7f4e487b7100000000000000000000000000000000000000000000000000000000600052602260045260246000fd5b600060028204905060018216806113a757607f821691505b602082108114156113bb576113ba611360565b5b50919050565b60006113cc82610e54565b91507fffffffffffffffffffffffffffffffffffffffffffffffffffffffffffffffff8214156113ff576113fe61124e565b5b600182019050919050565b600060808201905061141f6000830187610f4a565b61142c6020830186610fa1565b6114396040830185610fa1565b6114466060830184610fa1565b9594505050505056fea26469706673582212207a04dd72654aeb9d5ffe3f08f5665600c6b35bcc59f04387724b79d44f44c18264736f6c634300080a0033",
  "immutableReferences": {},
  "source": "// SPDX-License-Identifier: MIT\npragma solidity ^0.8.0;\n\ncontract TimeCapsule {\n  event NewCapsule(\n    address creator,\n    uint256 lockTime,\n    uint256 unlockTime,\n    uint256 id\n  );\n  event DestroyCapsule(uint256 id);\n\n  struct TimeCapsuleType {\n    string message;\n    uint256 lockTime;\n    uint256 unlockTime;\n    address originalOwner;\n  }\n\n  TimeCapsuleType[] internal capsules;\n  mapping(uint256 => address) public capsuleToOwner;\n  mapping(address => uint256) public ownerCapsuleCount;\n\n  modifier isOwner(uint256 id) {\n    require(capsuleToOwner[id] == msg.sender);\n    _;\n  }\n  modifier isNotBroken(uint256 id) {\n    require(capsuleToOwner[id] != address(0));\n    _;\n  }\n\n  function createCapsule(string memory message, uint256 unlockTime) public {\n    uint256 lockTime = block.timestamp;\n    require(lockTime < unlockTime);\n    capsules.push(TimeCapsuleType(message, lockTime, unlockTime, msg.sender));\n    uint256 id = capsules.length - 1;\n    ownerCapsuleCount[msg.sender]++;\n    capsuleToOwner[id] = msg.sender;\n    emit NewCapsule(msg.sender, lockTime, unlockTime, id);\n  }\n\n  function destroyCapsule(uint256 id) public isOwner(id) isNotBroken(id) {\n    ownerCapsuleCount[msg.sender]--;\n    capsuleToOwner[id] = address(0);\n    emit DestroyCapsule(id);\n  }\n\n  function getTotalCapsules() public view returns (uint256) {\n    return capsules.length;\n  }\n\n  function readCapsule(uint256 id)\n    public\n    view\n    isNotBroken(id)\n    returns (string memory)\n  {\n    require(block.timestamp > capsules[id].unlockTime);\n    return capsules[id].message;\n  }\n\n  function readCapsuleMetadata(uint256 id)\n    public\n    view\n    isNotBroken(id)\n    returns (\n      uint256 lockTime,\n      uint256 unlockTime,\n      address originalOwner\n    )\n  {\n    return (\n      capsules[id].lockTime,\n      capsules[id].unlockTime,\n      capsules[id].originalOwner\n    );\n  }\n}\n\nabstract contract ERC721 {\n  event Transfer(\n    address indexed _from,\n    address indexed _to,\n    uint256 indexed _tokenId\n  );\n  event Approval(\n    address indexed _owner,\n    address indexed _approved,\n    uint256 indexed _tokenId\n  );\n\n  function balanceOf(address _owner) external view virtual returns (uint256);\n\n  function ownerOf(uint256 _tokenId) external view virtual returns (address);\n\n  function transferFrom(\n    address _from,\n    address _to,\n    uint256 _tokenId\n  ) external payable virtual;\n\n  function approve(address _approved, uint256 _tokenId)\n    external\n    payable\n    virtual;\n}\n\ncontract Capsule is TimeCapsule, ERC721 {\n  mapping(uint256 => address) private approvals;\n\n  function balanceOf(address _owner) external view override returns (uint256) {\n    return ownerCapsuleCount[_owner];\n  }\n\n  function ownerOf(uint256 _tokenId) external view override returns (address) {\n    return capsuleToOwner[_tokenId];\n  }\n\n  function transferFrom(\n    address _from,\n    address _to,\n    uint256 _tokenId\n  ) external payable override {\n    require(\n      (capsuleToOwner[_tokenId] == _from) &&\n        (msg.sender == _from || msg.sender == approvals[_tokenId])\n    );\n    ownerCapsuleCount[_from] -= 1;\n    ownerCapsuleCount[_to] += 1;\n    capsuleToOwner[_tokenId] = _to;\n    emit Transfer(_from, _to, _tokenId);\n  }\n\n  function approve(address _approved, uint256 _tokenId)\n    external\n    payable\n    override\n  {\n    require(capsuleToOwner[_tokenId] == msg.sender);\n    approvals[_tokenId] = _approved;\n    emit Approval(msg.sender, _approved, _tokenId);\n  }\n}\n",
  "sourcePath": "C:\\Users\\James Lee\\Desktop\\projects\\nft-ethereum\\contracts\\Capsule.sol",
  "compiler": {
    "name": "solc",
    "version": "0.8.10+commit.fc410830.Emscripten.clang"
  },
  "schemaVersion": "3.4.4",
  "updatedAt": "2022-01-03T06:27:13.145Z",
  "networkType": "ethereum",
  "devdoc": {
    "kind": "dev",
    "methods": {},
    "version": 1
  },
  "userdoc": {
    "kind": "user",
    "methods": {},
    "version": 1
  }
}