{
  "contractName": "TimeCapsule",
  "abi": [
    {
      "anonymous": false,
      "inputs": [
        {
          "indexed": false,
          "internalType": "uint256",
          "name": "id",
          "type": "uint256"
        }
      ],
      "name": "DestroyCapsule",
      "type": "event"
    },
    {
      "anonymous": false,
      "inputs": [
        {
          "indexed": false,
          "internalType": "address",
          "name": "creator",
          "type": "address"
        },
        {
          "indexed": false,
          "internalType": "uint256",
          "name": "lockTime",
          "type": "uint256"
        },
        {
          "indexed": false,
          "internalType": "uint256",
          "name": "unlockTime",
          "type": "uint256"
        },
        {
          "indexed": false,
          "internalType": "uint256",
          "name": "id",
          "type": "uint256"
        }
      ],
      "name": "NewCapsule",
      "type": "event"
    },
    {
      "inputs": [
        {
          "internalType": "uint256",
          "name": "",
          "type": "uint256"
        }
      ],
      "name": "capsuleToOwner",
      "outputs": [
        {
          "internalType": "address",
          "name": "",
          "type": "address"
        }
      ],
      "stateMutability": "view",
      "type": "function"
    },
    {
      "inputs": [
        {
          "internalType": "address",
          "name": "",
          "type": "address"
        }
      ],
      "name": "ownerCapsuleCount",
      "outputs": [
        {
          "internalType": "uint256",
          "name": "",
          "type": "uint256"
        }
      ],
      "stateMutability": "view",
      "type": "function"
    },
    {
      "inputs": [
        {
          "internalType": "string",
          "name": "message",
          "type": "string"
        },
        {
          "internalType": "uint256",
          "name": "unlockTime",
          "type": "uint256"
        }
      ],
      "name": "createCapsule",
      "outputs": [],
      "stateMutability": "nonpayable",
      "type": "function"
    },
    {
      "inputs": [
        {
          "internalType": "uint256",
          "name": "id",
          "type": "uint256"
        }
      ],
      "name": "destroyCapsule",
      "outputs": [],
      "stateMutability": "nonpayable",
      "type": "function"
    },
    {
      "inputs": [],
      "name": "getTotalCapsules",
      "outputs": [
        {
          "internalType": "uint256",
          "name": "",
          "type": "uint256"
        }
      ],
      "stateMutability": "view",
      "type": "function"
    },
    {
      "inputs": [
        {
          "internalType": "uint256",
          "name": "id",
          "type": "uint256"
        }
      ],
      "name": "readCapsule",
      "outputs": [
        {
          "internalType": "string",
          "name": "",
          "type": "string"
        }
      ],
      "stateMutability": "view",
      "type": "function"
    },
    {
      "inputs": [
        {
          "internalType": "uint256",
          "name": "id",
          "type": "uint256"
        }
      ],
      "name": "readCapsuleMetadata",
      "outputs": [
        {
          "internalType": "uint256",
          "name": "lockTime",
          "type": "uint256"
        },
        {
          "internalType": "uint256",
          "name": "unlockTime",
          "type": "uint256"
        },
        {
          "internalType": "address",
          "name": "originalOwner",
          "type": "address"
        }
      ],
      "stateMutability": "view",
      "type": "function"
    }
  ],
  "bytecode": "0x608060405234801561001057600080fd5b50610e63806100206000396000f3fe608060405234801561001057600080fd5b506004361061007d5760003560e01c8063bb2c10521161005b578063bb2c1052146100ec578063d1c0b7a61461011e578063d5e0d88e1461014e578063e02308691461016a5761007d565b8063134e59ec1461008257806386be60fc1461009e578063b06d3c8d146100ce575b600080fd5b61009c600480360381019061009791906108f3565b61019a565b005b6100b860048036038101906100b3919061097e565b610358565b6040516100c591906109ba565b60405180910390f35b6100d6610370565b6040516100e391906109ba565b60405180910390f35b610106600480360381019061010191906108f3565b61037c565b604051610115939291906109e4565b60405180910390f35b610138600480360381019061013391906108f3565b61048f565b6040516101459190610ab4565b60405180910390f35b61016860048036038101906101639190610c0b565b6105e6565b005b610184600480360381019061017f91906108f3565b6107d3565b6040516101919190610c67565b60405180910390f35b803373ffffffffffffffffffffffffffffffffffffffff166001600083815260200190815260200160002060009054906101000a900473ffffffffffffffffffffffffffffffffffffffff1673ffffffffffffffffffffffffffffffffffffffff161461020657600080fd5b81600073ffffffffffffffffffffffffffffffffffffffff166001600083815260200190815260200160002060009054906101000a900473ffffffffffffffffffffffffffffffffffffffff1673ffffffffffffffffffffffffffffffffffffffff16141561027457600080fd5b600260003373ffffffffffffffffffffffffffffffffffffffff1673ffffffffffffffffffffffffffffffffffffffff16815260200190815260200160002060008154809291906102c490610cb1565b919050555060006001600085815260200190815260200160002060006101000a81548173ffffffffffffffffffffffffffffffffffffffff021916908373ffffffffffffffffffffffffffffffffffffffff1602179055507fc5e33237ba90108e9214dd8b5ea4835130eca1cc7e291e96c8af14091ad9b98a8360405161034b91906109ba565b60405180910390a1505050565b60026020528060005260406000206000915090505481565b60008080549050905090565b600080600083600073ffffffffffffffffffffffffffffffffffffffff166001600083815260200190815260200160002060009054906101000a900473ffffffffffffffffffffffffffffffffffffffff1673ffffffffffffffffffffffffffffffffffffffff1614156103ef57600080fd5b6000858154811061040357610402610cdb565b5b9060005260206000209060040201600101546000868154811061042957610428610cdb565b5b9060005260206000209060040201600201546000878154811061044f5761044e610cdb565b5b906000526020600020906004020160030160009054906101000a900473ffffffffffffffffffffffffffffffffffffffff16935093509350509193909250565b606081600073ffffffffffffffffffffffffffffffffffffffff166001600083815260200190815260200160002060009054906101000a900473ffffffffffffffffffffffffffffffffffffffff1673ffffffffffffffffffffffffffffffffffffffff1614156104ff57600080fd5b6000838154811061051357610512610cdb565b5b906000526020600020906004020160020154421161053057600080fd5b6000838154811061054457610543610cdb565b5b9060005260206000209060040201600001805461056090610d39565b80601f016020809104026020016040519081016040528092919081815260200182805461058c90610d39565b80156105d95780601f106105ae576101008083540402835291602001916105d9565b820191906000526020600020905b8154815290600101906020018083116105bc57829003601f168201915b5050505050915050919050565b60004290508181106105f757600080fd5b600060405180608001604052808581526020018381526020018481526020013373ffffffffffffffffffffffffffffffffffffffff1681525090806001815401808255809150506001900390600052602060002090600402016000909190919091506000820151816000019080519060200190610675929190610806565b50602082015181600101556040820151816002015560608201518160030160006101000a81548173ffffffffffffffffffffffffffffffffffffffff021916908373ffffffffffffffffffffffffffffffffffffffff1602179055505050600060016000805490506106e79190610d6b565b9050600260003373ffffffffffffffffffffffffffffffffffffffff1673ffffffffffffffffffffffffffffffffffffffff168152602001908152602001600020600081548092919061073990610d9f565b9190505550336001600083815260200190815260200160002060006101000a81548173ffffffffffffffffffffffffffffffffffffffff021916908373ffffffffffffffffffffffffffffffffffffffff1602179055507f325ae626dbcc2e8b99ef2c0c4c3efa5b211f1fcca4f952869538f88ebcf0fa94338385846040516107c59493929190610de8565b60405180910390a150505050565b60016020528060005260406000206000915054906101000a900473ffffffffffffffffffffffffffffffffffffffff1681565b82805461081290610d39565b90600052602060002090601f016020900481019282610834576000855561087b565b82601f1061084d57805160ff191683800117855561087b565b8280016001018555821561087b579182015b8281111561087a57825182559160200191906001019061085f565b5b509050610888919061088c565b5090565b5b808211156108a557600081600090555060010161088d565b5090565b6000604051905090565b600080fd5b600080fd5b6000819050919050565b6108d0816108bd565b81146108db57600080fd5b50565b6000813590506108ed816108c7565b92915050565b600060208284031215610909576109086108b3565b5b6000610917848285016108de565b91505092915050565b600073ffffffffffffffffffffffffffffffffffffffff82169050919050565b600061094b82610920565b9050919050565b61095b81610940565b811461096657600080fd5b50565b60008135905061097881610952565b92915050565b600060208284031215610994576109936108b3565b5b60006109a284828501610969565b91505092915050565b6109b4816108bd565b82525050565b60006020820190506109cf60008301846109ab565b92915050565b6109de81610940565b82525050565b60006060820190506109f960008301866109ab565b610a0660208301856109ab565b610a1360408301846109d5565b949350505050565b600081519050919050565b600082825260208201905092915050565b60005b83811015610a55578082015181840152602081019050610a3a565b83811115610a64576000848401525b50505050565b6000601f19601f8301169050919050565b6000610a8682610a1b565b610a908185610a26565b9350610aa0818560208601610a37565b610aa981610a6a565b840191505092915050565b60006020820190508181036000830152610ace8184610a7b565b905092915050565b600080fd5b600080fd5b7f4e487b7100000000000000000000000000000000000000000000000000000000600052604160045260246000fd5b610b1882610a6a565b810181811067ffffffffffffffff82111715610b3757610b36610ae0565b5b80604052505050565b6000610b4a6108a9565b9050610b568282610b0f565b919050565b600067ffffffffffffffff821115610b7657610b75610ae0565b5b610b7f82610a6a565b9050602081019050919050565b82818337600083830152505050565b6000610bae610ba984610b5b565b610b40565b905082815260208101848484011115610bca57610bc9610adb565b5b610bd5848285610b8c565b509392505050565b600082601f830112610bf257610bf1610ad6565b5b8135610c02848260208601610b9b565b91505092915050565b60008060408385031215610c2257610c216108b3565b5b600083013567ffffffffffffffff811115610c4057610c3f6108b8565b5b610c4c85828601610bdd565b9250506020610c5d858286016108de565b9150509250929050565b6000602082019050610c7c60008301846109d5565b92915050565b7f4e487b7100000000000000000000000000000000000000000000000000000000600052601160045260246000fd5b6000610cbc826108bd565b91506000821415610cd057610ccf610c82565b5b600182039050919050565b7f4e487b7100000000000000000000000000000000000000000000000000000000600052603260045260246000fd5b7f4e487b7100000000000000000000000000000000000000000000000000000000600052602260045260246000fd5b60006002820490506001821680610d5157607f821691505b60208210811415610d6557610d64610d0a565b5b50919050565b6000610d76826108bd565b9150610d81836108bd565b925082821015610d9457610d93610c82565b5b828203905092915050565b6000610daa826108bd565b91507fffffffffffffffffffffffffffffffffffffffffffffffffffffffffffffffff821415610ddd57610ddc610c82565b5b600182019050919050565b6000608082019050610dfd60008301876109d5565b610e0a60208301866109ab565b610e1760408301856109ab565b610e2460608301846109ab565b9594505050505056fea2646970667358221220b5fd115bc22586d7ce76e26e14752d29d9b0871f1788eeeefd8b263d0c74cdd764736f6c634300080a0033",
  "immutableReferences": {},
  "source": "// SPDX-License-Identifier: MIT\npragma solidity ^0.8.0;\n\ncontract TimeCapsule {\n  event NewCapsule(\n    address creator,\n    uint256 lockTime,\n    uint256 unlockTime,\n    uint256 id\n  );\n  event DestroyCapsule(uint256 id);\n\n  struct TimeCapsuleType {\n    string message;\n    uint256 lockTime;\n    uint256 unlockTime;\n    address originalOwner;\n  }\n\n  TimeCapsuleType[] internal capsules;\n  mapping(uint256 => address) public capsuleToOwner;\n  mapping(address => uint256) public ownerCapsuleCount;\n\n  modifier isOwner(uint256 id) {\n    require(capsuleToOwner[id] == msg.sender);\n    _;\n  }\n  modifier isNotBroken(uint256 id) {\n    require(capsuleToOwner[id] != address(0));\n    _;\n  }\n\n  function createCapsule(string memory message, uint256 unlockTime) public {\n    uint256 lockTime = block.timestamp;\n    require(lockTime < unlockTime);\n    capsules.push(TimeCapsuleType(message, lockTime, unlockTime, msg.sender));\n    uint256 id = capsules.length - 1;\n    ownerCapsuleCount[msg.sender]++;\n    capsuleToOwner[id] = msg.sender;\n    emit NewCapsule(msg.sender, lockTime, unlockTime, id);\n  }\n\n  function destroyCapsule(uint256 id) public isOwner(id) isNotBroken(id) {\n    ownerCapsuleCount[msg.sender]--;\n    capsuleToOwner[id] = address(0);\n    emit DestroyCapsule(id);\n  }\n\n  function getTotalCapsules() public view returns (uint256) {\n    return capsules.length;\n  }\n\n  function readCapsule(uint256 id)\n    public\n    view\n    isNotBroken(id)\n    returns (string memory)\n  {\n    require(block.timestamp > capsules[id].unlockTime);\n    return capsules[id].message;\n  }\n\n  function readCapsuleMetadata(uint256 id)\n    public\n    view\n    isNotBroken(id)\n    returns (\n      uint256 lockTime,\n      uint256 unlockTime,\n      address originalOwner\n    )\n  {\n    return (\n      capsules[id].lockTime,\n      capsules[id].unlockTime,\n      capsules[id].originalOwner\n    );\n  }\n}\n\nabstract contract ERC721 {\n  event Transfer(\n    address indexed _from,\n    address indexed _to,\n    uint256 indexed _tokenId\n  );\n  event Approval(\n    address indexed _owner,\n    address indexed _approved,\n    uint256 indexed _tokenId\n  );\n\n  function balanceOf(address _owner) external view virtual returns (uint256);\n\n  function ownerOf(uint256 _tokenId) external view virtual returns (address);\n\n  function transferFrom(\n    address _from,\n    address _to,\n    uint256 _tokenId\n  ) external payable virtual;\n\n  function approve(address _approved, uint256 _tokenId)\n    external\n    payable\n    virtual;\n}\n\ncontract Capsule is TimeCapsule, ERC721 {\n  mapping(uint256 => address) private approvals;\n\n  function balanceOf(address _owner) external view override returns (uint256) {\n    return ownerCapsuleCount[_owner];\n  }\n\n  function ownerOf(uint256 _tokenId) external view override returns (address) {\n    return capsuleToOwner[_tokenId];\n  }\n\n  function transferFrom(\n    address _from,\n    address _to,\n    uint256 _tokenId\n  ) external payable override {\n    require(\n      (capsuleToOwner[_tokenId] == _from) &&\n        (msg.sender == _from || msg.sender == approvals[_tokenId])\n    );\n    ownerCapsuleCount[_from] -= 1;\n    ownerCapsuleCount[_to] += 1;\n    capsuleToOwner[_tokenId] = _to;\n    emit Transfer(_from, _to, _tokenId);\n  }\n\n  function approve(address _approved, uint256 _tokenId)\n    external\n    payable\n    override\n  {\n    require(capsuleToOwner[_tokenId] == msg.sender);\n    approvals[_tokenId] = _approved;\n    emit Approval(msg.sender, _approved, _tokenId);\n  }\n}\n",
  "sourcePath": "C:\\Users\\James Lee\\Desktop\\projects\\nft-ethereum\\backend\\contracts\\Capsule.sol",
  "compiler": {
    "name": "solc",
    "version": "0.8.10+commit.fc410830.Emscripten.clang"
  },
  "schemaVersion": "3.4.4",
  "updatedAt": "2022-01-03T06:49:48.690Z",
  "devdoc": {
    "kind": "dev",
    "methods": {},
    "version": 1
  },
  "userdoc": {
    "kind": "user",
    "methods": {},
    "version": 1
  }
}